{
    "_format": "hh-sol-artifact-1",
    "contractName": "GeniDex",
    "sourceName": "contracts/GeniDex.sol",
    "abi": [
        {
            "inputs": [],
            "stateMutability": "nonpayable",
            "type": "constructor"
        },
        {
            "inputs": [
                {
                    "internalType": "address",
                    "name": "target",
                    "type": "address"
                }
            ],
            "name": "AddressEmptyCode",
            "type": "error"
        },
        {
            "inputs": [
                {
                    "internalType": "uint256",
                    "name": "amount",
                    "type": "uint256"
                },
                {
                    "internalType": "uint256",
                    "name": "minAmount",
                    "type": "uint256"
                }
            ],
            "name": "AmountTooSmall",
            "type": "error"
        },
        {
            "inputs": [
                {
                    "internalType": "address",
                    "name": "implementation",
                    "type": "address"
                }
            ],
            "name": "ERC1967InvalidImplementation",
            "type": "error"
        },
        {
            "inputs": [],
            "name": "ERC1967NonPayable",
            "type": "error"
        },
        {
            "inputs": [],
            "name": "EnforcedPause",
            "type": "error"
        },
        {
            "inputs": [],
            "name": "ExpectedPause",
            "type": "error"
        },
        {
            "inputs": [],
            "name": "FailedCall",
            "type": "error"
        },
        {
            "inputs": [
                {
                    "internalType": "uint256",
                    "name": "available",
                    "type": "uint256"
                },
                {
                    "internalType": "uint256",
                    "name": "required",
                    "type": "uint256"
                }
            ],
            "name": "InsufficientBalance",
            "type": "error"
        },
        {
            "inputs": [],
            "name": "InvalidInitialization",
            "type": "error"
        },
        {
            "inputs": [
                {
                    "internalType": "uint256",
                    "name": "marketId",
                    "type": "uint256"
                },
                {
                    "internalType": "uint256",
                    "name": "marketCounter",
                    "type": "uint256"
                }
            ],
            "name": "InvalidMarketId",
            "type": "error"
        },
        {
            "inputs": [],
            "name": "InvalidProof",
            "type": "error"
        },
        {
            "inputs": [
                {
                    "internalType": "address",
                    "name": "token",
                    "type": "address"
                }
            ],
            "name": "MetadataFetchFailed",
            "type": "error"
        },
        {
            "inputs": [],
            "name": "NotInitializing",
            "type": "error"
        },
        {
            "inputs": [
                {
                    "internalType": "uint256",
                    "name": "orderIndex",
                    "type": "uint256"
                }
            ],
            "name": "OrderAlreadyCanceled",
            "type": "error"
        },
        {
            "inputs": [
                {
                    "internalType": "address",
                    "name": "owner",
                    "type": "address"
                }
            ],
            "name": "OwnableInvalidOwner",
            "type": "error"
        },
        {
            "inputs": [
                {
                    "internalType": "address",
                    "name": "account",
                    "type": "address"
                }
            ],
            "name": "OwnableUnauthorizedAccount",
            "type": "error"
        },
        {
            "inputs": [],
            "name": "ReentrancyGuardReentrantCall",
            "type": "error"
        },
        {
            "inputs": [],
            "name": "ReferralRootNotSet",
            "type": "error"
        },
        {
            "inputs": [
                {
                    "internalType": "address",
                    "name": "token",
                    "type": "address"
                }
            ],
            "name": "SafeERC20FailedOperation",
            "type": "error"
        },
        {
            "inputs": [
                {
                    "internalType": "address",
                    "name": "token",
                    "type": "address"
                }
            ],
            "name": "TokenNotListed",
            "type": "error"
        },
        {
            "inputs": [
                {
                    "internalType": "uint256",
                    "name": "total",
                    "type": "uint256"
                },
                {
                    "internalType": "uint256",
                    "name": "minimumRequired",
                    "type": "uint256"
                }
            ],
            "name": "TotalTooSmall",
            "type": "error"
        },
        {
            "inputs": [
                {
                    "internalType": "address",
                    "name": "from",
                    "type": "address"
                },
                {
                    "internalType": "address",
                    "name": "to",
                    "type": "address"
                },
                {
                    "internalType": "uint256",
                    "name": "amount",
                    "type": "uint256"
                }
            ],
            "name": "TransferFailed",
            "type": "error"
        },
        {
            "inputs": [],
            "name": "UUPSUnauthorizedCallContext",
            "type": "error"
        },
        {
            "inputs": [
                {
                    "internalType": "bytes32",
                    "name": "slot",
                    "type": "bytes32"
                }
            ],
            "name": "UUPSUnsupportedProxiableUUID",
            "type": "error"
        },
        {
            "inputs": [
                {
                    "internalType": "address",
                    "name": "caller",
                    "type": "address"
                },
                {
                    "internalType": "address",
                    "name": "owner",
                    "type": "address"
                }
            ],
            "name": "Unauthorized",
            "type": "error"
        },
        {
            "anonymous": false,
            "inputs": [
                {
                    "indexed": true,
                    "internalType": "address",
                    "name": "sender",
                    "type": "address"
                },
                {
                    "indexed": true,
                    "internalType": "address",
                    "name": "token",
                    "type": "address"
                },
                {
                    "indexed": false,
                    "internalType": "uint256",
                    "name": "amount",
                    "type": "uint256"
                }
            ],
            "name": "Deposit",
            "type": "event"
        },
        {
            "anonymous": false,
            "inputs": [
                {
                    "indexed": true,
                    "internalType": "address",
                    "name": "previous",
                    "type": "address"
                },
                {
                    "indexed": true,
                    "internalType": "address",
                    "name": "newRewarder",
                    "type": "address"
                }
            ],
            "name": "GeniRewarderUpdated",
            "type": "event"
        },
        {
            "anonymous": false,
            "inputs": [
                {
                    "indexed": false,
                    "internalType": "uint64",
                    "name": "version",
                    "type": "uint64"
                }
            ],
            "name": "Initialized",
            "type": "event"
        },
        {
            "anonymous": false,
            "inputs": [
                {
                    "indexed": true,
                    "internalType": "uint256",
                    "name": "marketId",
                    "type": "uint256"
                },
                {
                    "indexed": true,
                    "internalType": "address",
                    "name": "trader",
                    "type": "address"
                },
                {
                    "indexed": false,
                    "internalType": "uint256",
                    "name": "orderIndex",
                    "type": "uint256"
                },
                {
                    "indexed": false,
                    "internalType": "uint256",
                    "name": "price",
                    "type": "uint256"
                },
                {
                    "indexed": false,
                    "internalType": "uint256",
                    "name": "quantity",
                    "type": "uint256"
                },
                {
                    "indexed": false,
                    "internalType": "uint256",
                    "name": "remainingQuantity",
                    "type": "uint256"
                },
                {
                    "indexed": false,
                    "internalType": "uint256",
                    "name": "lastPrice",
                    "type": "uint256"
                },
                {
                    "indexed": false,
                    "internalType": "address",
                    "name": "referrer",
                    "type": "address"
                }
            ],
            "name": "OnPlaceBuyOrder",
            "type": "event"
        },
        {
            "anonymous": false,
            "inputs": [
                {
                    "indexed": true,
                    "internalType": "uint256",
                    "name": "marketId",
                    "type": "uint256"
                },
                {
                    "indexed": true,
                    "internalType": "address",
                    "name": "trader",
                    "type": "address"
                },
                {
                    "indexed": false,
                    "internalType": "uint256",
                    "name": "orderIndex",
                    "type": "uint256"
                },
                {
                    "indexed": false,
                    "internalType": "uint256",
                    "name": "price",
                    "type": "uint256"
                },
                {
                    "indexed": false,
                    "internalType": "uint256",
                    "name": "quantity",
                    "type": "uint256"
                },
                {
                    "indexed": false,
                    "internalType": "uint256",
                    "name": "remainingQuantity",
                    "type": "uint256"
                },
                {
                    "indexed": false,
                    "internalType": "uint256",
                    "name": "lastPrice",
                    "type": "uint256"
                },
                {
                    "indexed": false,
                    "internalType": "address",
                    "name": "referrer",
                    "type": "address"
                }
            ],
            "name": "OnPlaceSellOrder",
            "type": "event"
        },
        {
            "anonymous": false,
            "inputs": [
                {
                    "indexed": true,
                    "internalType": "address",
                    "name": "previousOwner",
                    "type": "address"
                },
                {
                    "indexed": true,
                    "internalType": "address",
                    "name": "newOwner",
                    "type": "address"
                }
            ],
            "name": "OwnershipTransferred",
            "type": "event"
        },
        {
            "anonymous": false,
            "inputs": [
                {
                    "indexed": false,
                    "internalType": "address",
                    "name": "account",
                    "type": "address"
                }
            ],
            "name": "Paused",
            "type": "event"
        },
        {
            "anonymous": false,
            "inputs": [
                {
                    "indexed": false,
                    "internalType": "address",
                    "name": "account",
                    "type": "address"
                }
            ],
            "name": "Unpaused",
            "type": "event"
        },
        {
            "anonymous": false,
            "inputs": [
                {
                    "indexed": true,
                    "internalType": "address",
                    "name": "implementation",
                    "type": "address"
                }
            ],
            "name": "Upgraded",
            "type": "event"
        },
        {
            "anonymous": false,
            "inputs": [
                {
                    "indexed": true,
                    "internalType": "address",
                    "name": "recipient",
                    "type": "address"
                },
                {
                    "indexed": true,
                    "internalType": "address",
                    "name": "token",
                    "type": "address"
                },
                {
                    "indexed": false,
                    "internalType": "uint256",
                    "name": "amount",
                    "type": "uint256"
                }
            ],
            "name": "Withdrawal",
            "type": "event"
        },
        {
            "inputs": [],
            "name": "UPGRADE_INTERFACE_VERSION",
            "outputs": [
                {
                    "internalType": "string",
                    "name": "",
                    "type": "string"
                }
            ],
            "stateMutability": "view",
            "type": "function"
        },
        {
            "inputs": [],
            "name": "WAD",
            "outputs": [
                {
                    "internalType": "uint256",
                    "name": "",
                    "type": "uint256"
                }
            ],
            "stateMutability": "view",
            "type": "function"
        },
        {
            "inputs": [
                {
                    "internalType": "address",
                    "name": "baseAddress",
                    "type": "address"
                },
                {
                    "internalType": "address",
                    "name": "quoteAddress",
                    "type": "address"
                },
                {
                    "internalType": "uint256",
                    "name": "minOrderAmount",
                    "type": "uint256"
                }
            ],
            "name": "addMarket",
            "outputs": [],
            "stateMutability": "nonpayable",
            "type": "function"
        },
        {
            "inputs": [
                {
                    "internalType": "address",
                    "name": "",
                    "type": "address"
                },
                {
                    "internalType": "address",
                    "name": "",
                    "type": "address"
                }
            ],
            "name": "balances",
            "outputs": [
                {
                    "internalType": "uint256",
                    "name": "",
                    "type": "uint256"
                }
            ],
            "stateMutability": "view",
            "type": "function"
        },
        {
            "inputs": [
                {
                    "internalType": "uint256",
                    "name": "",
                    "type": "uint256"
                },
                {
                    "internalType": "uint256",
                    "name": "",
                    "type": "uint256"
                }
            ],
            "name": "buyOrders",
            "outputs": [
                {
                    "internalType": "address",
                    "name": "trader",
                    "type": "address"
                },
                {
                    "internalType": "uint256",
                    "name": "price",
                    "type": "uint256"
                },
                {
                    "internalType": "uint256",
                    "name": "quantity",
                    "type": "uint256"
                }
            ],
            "stateMutability": "view",
            "type": "function"
        },
        {
            "inputs": [
                {
                    "internalType": "uint256",
                    "name": "marketId",
                    "type": "uint256"
                },
                {
                    "internalType": "uint256",
                    "name": "orderIndex",
                    "type": "uint256"
                }
            ],
            "name": "cancelBuyOrder",
            "outputs": [],
            "stateMutability": "nonpayable",
            "type": "function"
        },
        {
            "inputs": [
                {
                    "internalType": "uint256",
                    "name": "marketId",
                    "type": "uint256"
                },
                {
                    "internalType": "uint256",
                    "name": "orderIndex",
                    "type": "uint256"
                }
            ],
            "name": "cancelSellOrder",
            "outputs": [],
            "stateMutability": "nonpayable",
            "type": "function"
        },
        {
            "inputs": [
                {
                    "internalType": "address",
                    "name": "user",
                    "type": "address"
                },
                {
                    "internalType": "uint256",
                    "name": "pointsToDeduct",
                    "type": "uint256"
                }
            ],
            "name": "deductUserPoints",
            "outputs": [],
            "stateMutability": "nonpayable",
            "type": "function"
        },
        {
            "inputs": [],
            "name": "depositEth",
            "outputs": [],
            "stateMutability": "payable",
            "type": "function"
        },
        {
            "inputs": [
                {
                    "internalType": "address",
                    "name": "tokenAddress",
                    "type": "address"
                },
                {
                    "internalType": "uint256",
                    "name": "normalizedAmount",
                    "type": "uint256"
                }
            ],
            "name": "depositToken",
            "outputs": [],
            "stateMutability": "nonpayable",
            "type": "function"
        },
        {
            "inputs": [],
            "name": "feeReceiver",
            "outputs": [
                {
                    "internalType": "address",
                    "name": "",
                    "type": "address"
                }
            ],
            "stateMutability": "view",
            "type": "function"
        },
        {
            "inputs": [
                {
                    "internalType": "address",
                    "name": "baseAddress",
                    "type": "address"
                },
                {
                    "internalType": "address",
                    "name": "quoteAddress",
                    "type": "address"
                }
            ],
            "name": "generateMarketHash",
            "outputs": [
                {
                    "internalType": "bytes32",
                    "name": "",
                    "type": "bytes32"
                }
            ],
            "stateMutability": "pure",
            "type": "function"
        },
        {
            "inputs": [],
            "name": "geniRewarder",
            "outputs": [
                {
                    "internalType": "address",
                    "name": "",
                    "type": "address"
                }
            ],
            "stateMutability": "view",
            "type": "function"
        },
        {
            "inputs": [],
            "name": "getAllMarkets",
            "outputs": [
                {
                    "components": [
                        {
                            "internalType": "string",
                            "name": "symbol",
                            "type": "string"
                        },
                        {
                            "internalType": "uint256",
                            "name": "id",
                            "type": "uint256"
                        },
                        {
                            "internalType": "uint256",
                            "name": "price",
                            "type": "uint256"
                        },
                        {
                            "internalType": "uint256",
                            "name": "lastUpdatePrice",
                            "type": "uint256"
                        },
                        {
                            "internalType": "address",
                            "name": "baseAddress",
                            "type": "address"
                        },
                        {
                            "internalType": "address",
                            "name": "quoteAddress",
                            "type": "address"
                        },
                        {
                            "internalType": "address",
                            "name": "creator",
                            "type": "address"
                        },
                        {
                            "internalType": "bool",
                            "name": "isRewardable",
                            "type": "bool"
                        }
                    ],
                    "internalType": "struct Storage.Market[]",
                    "name": "",
                    "type": "tuple[]"
                }
            ],
            "stateMutability": "view",
            "type": "function"
        },
        {
            "inputs": [
                {
                    "internalType": "address",
                    "name": "tokenAddress",
                    "type": "address"
                }
            ],
            "name": "getAndSetTokenMeta",
            "outputs": [
                {
                    "internalType": "string",
                    "name": "symbol",
                    "type": "string"
                },
                {
                    "internalType": "uint8",
                    "name": "decimals",
                    "type": "uint8"
                }
            ],
            "stateMutability": "nonpayable",
            "type": "function"
        },
        {
            "inputs": [
                {
                    "internalType": "uint256",
                    "name": "marketId",
                    "type": "uint256"
                },
                {
                    "internalType": "uint256",
                    "name": "minPrice",
                    "type": "uint256"
                }
            ],
            "name": "getBuyOrders",
            "outputs": [
                {
                    "components": [
                        {
                            "internalType": "uint256",
                            "name": "id",
                            "type": "uint256"
                        },
                        {
                            "internalType": "address",
                            "name": "trader",
                            "type": "address"
                        },
                        {
                            "internalType": "uint256",
                            "name": "price",
                            "type": "uint256"
                        },
                        {
                            "internalType": "uint256",
                            "name": "quantity",
                            "type": "uint256"
                        }
                    ],
                    "internalType": "struct Storage.OutputOrder[]",
                    "name": "rsBuyOrders",
                    "type": "tuple[]"
                }
            ],
            "stateMutability": "view",
            "type": "function"
        },
        {
            "inputs": [
                {
                    "internalType": "uint256",
                    "name": "marketID",
                    "type": "uint256"
                }
            ],
            "name": "getBuyOrdersLength",
            "outputs": [
                {
                    "internalType": "uint256",
                    "name": "",
                    "type": "uint256"
                }
            ],
            "stateMutability": "view",
            "type": "function"
        },
        {
            "inputs": [],
            "name": "getEthBalance",
            "outputs": [
                {
                    "internalType": "uint256",
                    "name": "",
                    "type": "uint256"
                }
            ],
            "stateMutability": "view",
            "type": "function"
        },
        {
            "inputs": [
                {
                    "internalType": "enum Storage.OrderType",
                    "name": "orderType",
                    "type": "uint8"
                },
                {
                    "internalType": "uint256",
                    "name": "marketID",
                    "type": "uint256"
                },
                {
                    "internalType": "uint256",
                    "name": "limit",
                    "type": "uint256"
                }
            ],
            "name": "getFilledOrders",
            "outputs": [
                {
                    "internalType": "uint256[]",
                    "name": "",
                    "type": "uint256[]"
                }
            ],
            "stateMutability": "view",
            "type": "function"
        },
        {
            "inputs": [
                {
                    "internalType": "uint256",
                    "name": "id",
                    "type": "uint256"
                }
            ],
            "name": "getMarket",
            "outputs": [
                {
                    "components": [
                        {
                            "internalType": "string",
                            "name": "symbol",
                            "type": "string"
                        },
                        {
                            "internalType": "uint256",
                            "name": "id",
                            "type": "uint256"
                        },
                        {
                            "internalType": "uint256",
                            "name": "price",
                            "type": "uint256"
                        },
                        {
                            "internalType": "uint256",
                            "name": "lastUpdatePrice",
                            "type": "uint256"
                        },
                        {
                            "internalType": "address",
                            "name": "baseAddress",
                            "type": "address"
                        },
                        {
                            "internalType": "address",
                            "name": "quoteAddress",
                            "type": "address"
                        },
                        {
                            "internalType": "address",
                            "name": "creator",
                            "type": "address"
                        },
                        {
                            "internalType": "bool",
                            "name": "isRewardable",
                            "type": "bool"
                        }
                    ],
                    "internalType": "struct Storage.Market",
                    "name": "",
                    "type": "tuple"
                }
            ],
            "stateMutability": "view",
            "type": "function"
        },
        {
            "inputs": [
                {
                    "internalType": "address",
                    "name": "baseAddress",
                    "type": "address"
                },
                {
                    "internalType": "address",
                    "name": "quoteAddress",
                    "type": "address"
                }
            ],
            "name": "getMarketID",
            "outputs": [
                {
                    "internalType": "uint256",
                    "name": "",
                    "type": "uint256"
                }
            ],
            "stateMutability": "view",
            "type": "function"
        },
        {
            "inputs": [
                {
                    "internalType": "enum Storage.OrderType",
                    "name": "orderType",
                    "type": "uint8"
                },
                {
                    "internalType": "uint256",
                    "name": "marketID",
                    "type": "uint256"
                },
                {
                    "internalType": "uint256",
                    "name": "offset",
                    "type": "uint256"
                },
                {
                    "internalType": "uint256",
                    "name": "limit",
                    "type": "uint256"
                }
            ],
            "name": "getOrders",
            "outputs": [
                {
                    "components": [
                        {
                            "internalType": "address",
                            "name": "trader",
                            "type": "address"
                        },
                        {
                            "internalType": "uint256",
                            "name": "price",
                            "type": "uint256"
                        },
                        {
                            "internalType": "uint256",
                            "name": "quantity",
                            "type": "uint256"
                        }
                    ],
                    "internalType": "struct Storage.Order[]",
                    "name": "orders",
                    "type": "tuple[]"
                }
            ],
            "stateMutability": "view",
            "type": "function"
        },
        {
            "inputs": [
                {
                    "internalType": "address",
                    "name": "referrer",
                    "type": "address"
                }
            ],
            "name": "getReferees",
            "outputs": [
                {
                    "internalType": "address[]",
                    "name": "",
                    "type": "address[]"
                }
            ],
            "stateMutability": "view",
            "type": "function"
        },
        {
            "inputs": [
                {
                    "internalType": "address",
                    "name": "referee",
                    "type": "address"
                }
            ],
            "name": "getReferrer",
            "outputs": [
                {
                    "internalType": "address",
                    "name": "",
                    "type": "address"
                }
            ],
            "stateMutability": "view",
            "type": "function"
        },
        {
            "inputs": [
                {
                    "internalType": "uint256",
                    "name": "marketId",
                    "type": "uint256"
                },
                {
                    "internalType": "uint256",
                    "name": "maxPrice",
                    "type": "uint256"
                }
            ],
            "name": "getSellOrders",
            "outputs": [
                {
                    "components": [
                        {
                            "internalType": "uint256",
                            "name": "id",
                            "type": "uint256"
                        },
                        {
                            "internalType": "address",
                            "name": "trader",
                            "type": "address"
                        },
                        {
                            "internalType": "uint256",
                            "name": "price",
                            "type": "uint256"
                        },
                        {
                            "internalType": "uint256",
                            "name": "quantity",
                            "type": "uint256"
                        }
                    ],
                    "internalType": "struct Storage.OutputOrder[]",
                    "name": "rsSellOrders",
                    "type": "tuple[]"
                }
            ],
            "stateMutability": "view",
            "type": "function"
        },
        {
            "inputs": [
                {
                    "internalType": "uint256",
                    "name": "marketID",
                    "type": "uint256"
                }
            ],
            "name": "getSellOrdersLength",
            "outputs": [
                {
                    "internalType": "uint256",
                    "name": "",
                    "type": "uint256"
                }
            ],
            "stateMutability": "view",
            "type": "function"
        },
        {
            "inputs": [
                {
                    "internalType": "address",
                    "name": "tokenAddress",
                    "type": "address"
                }
            ],
            "name": "getTokenBalance",
            "outputs": [
                {
                    "internalType": "uint256",
                    "name": "",
                    "type": "uint256"
                }
            ],
            "stateMutability": "view",
            "type": "function"
        },
        {
            "inputs": [
                {
                    "internalType": "address[]",
                    "name": "tokenAddresses",
                    "type": "address[]"
                }
            ],
            "name": "getTokensInfo",
            "outputs": [
                {
                    "components": [
                        {
                            "internalType": "address",
                            "name": "tokenAddress",
                            "type": "address"
                        },
                        {
                            "internalType": "string",
                            "name": "symbol",
                            "type": "string"
                        },
                        {
                            "internalType": "uint256",
                            "name": "usdMarketID",
                            "type": "uint256"
                        },
                        {
                            "internalType": "uint256",
                            "name": "minOrderAmount",
                            "type": "uint256"
                        },
                        {
                            "internalType": "uint256",
                            "name": "minTransferAmount",
                            "type": "uint256"
                        },
                        {
                            "internalType": "uint8",
                            "name": "decimals",
                            "type": "uint8"
                        },
                        {
                            "internalType": "bool",
                            "name": "isUSD",
                            "type": "bool"
                        }
                    ],
                    "internalType": "struct Tokens.TokenInfo[]",
                    "name": "",
                    "type": "tuple[]"
                }
            ],
            "stateMutability": "view",
            "type": "function"
        },
        {
            "inputs": [],
            "name": "getTotalUnclaimedPoints",
            "outputs": [
                {
                    "internalType": "uint256",
                    "name": "",
                    "type": "uint256"
                }
            ],
            "stateMutability": "view",
            "type": "function"
        },
        {
            "inputs": [
                {
                    "internalType": "address",
                    "name": "user",
                    "type": "address"
                }
            ],
            "name": "getUserPoints",
            "outputs": [
                {
                    "internalType": "uint256",
                    "name": "",
                    "type": "uint256"
                }
            ],
            "stateMutability": "view",
            "type": "function"
        },
        {
            "inputs": [
                {
                    "internalType": "address",
                    "name": "initialOwner",
                    "type": "address"
                }
            ],
            "name": "initialize",
            "outputs": [],
            "stateMutability": "nonpayable",
            "type": "function"
        },
        {
            "inputs": [],
            "name": "marketCounter",
            "outputs": [
                {
                    "internalType": "uint256",
                    "name": "",
                    "type": "uint256"
                }
            ],
            "stateMutability": "view",
            "type": "function"
        },
        {
            "inputs": [
                {
                    "internalType": "bytes32",
                    "name": "",
                    "type": "bytes32"
                }
            ],
            "name": "marketIDs",
            "outputs": [
                {
                    "internalType": "uint256",
                    "name": "",
                    "type": "uint256"
                }
            ],
            "stateMutability": "view",
            "type": "function"
        },
        {
            "inputs": [
                {
                    "internalType": "uint256",
                    "name": "",
                    "type": "uint256"
                }
            ],
            "name": "markets",
            "outputs": [
                {
                    "internalType": "string",
                    "name": "symbol",
                    "type": "string"
                },
                {
                    "internalType": "uint256",
                    "name": "id",
                    "type": "uint256"
                },
                {
                    "internalType": "uint256",
                    "name": "price",
                    "type": "uint256"
                },
                {
                    "internalType": "uint256",
                    "name": "lastUpdatePrice",
                    "type": "uint256"
                },
                {
                    "internalType": "address",
                    "name": "baseAddress",
                    "type": "address"
                },
                {
                    "internalType": "address",
                    "name": "quoteAddress",
                    "type": "address"
                },
                {
                    "internalType": "address",
                    "name": "creator",
                    "type": "address"
                },
                {
                    "internalType": "bool",
                    "name": "isRewardable",
                    "type": "bool"
                }
            ],
            "stateMutability": "view",
            "type": "function"
        },
        {
            "inputs": [
                {
                    "internalType": "bytes32[]",
                    "name": "proof",
                    "type": "bytes32[]"
                },
                {
                    "internalType": "address[]",
                    "name": "referees",
                    "type": "address[]"
                }
            ],
            "name": "migrateReferees",
            "outputs": [],
            "stateMutability": "nonpayable",
            "type": "function"
        },
        {
            "inputs": [],
            "name": "owner",
            "outputs": [
                {
                    "internalType": "address",
                    "name": "",
                    "type": "address"
                }
            ],
            "stateMutability": "view",
            "type": "function"
        },
        {
            "inputs": [],
            "name": "pause",
            "outputs": [],
            "stateMutability": "nonpayable",
            "type": "function"
        },
        {
            "inputs": [],
            "name": "paused",
            "outputs": [
                {
                    "internalType": "bool",
                    "name": "",
                    "type": "bool"
                }
            ],
            "stateMutability": "view",
            "type": "function"
        },
        {
            "inputs": [
                {
                    "internalType": "uint256",
                    "name": "marketId",
                    "type": "uint256"
                },
                {
                    "internalType": "uint256",
                    "name": "price",
                    "type": "uint256"
                },
                {
                    "internalType": "uint256",
                    "name": "quantity",
                    "type": "uint256"
                },
                {
                    "internalType": "uint256",
                    "name": "filledOrderId",
                    "type": "uint256"
                },
                {
                    "internalType": "uint256[]",
                    "name": "sellOrderIDs",
                    "type": "uint256[]"
                },
                {
                    "internalType": "address",
                    "name": "referrer",
                    "type": "address"
                }
            ],
            "name": "placeBuyOrder",
            "outputs": [],
            "stateMutability": "nonpayable",
            "type": "function"
        },
        {
            "inputs": [
                {
                    "internalType": "uint256",
                    "name": "marketId",
                    "type": "uint256"
                },
                {
                    "internalType": "uint256",
                    "name": "price",
                    "type": "uint256"
                },
                {
                    "internalType": "uint256",
                    "name": "quantity",
                    "type": "uint256"
                },
                {
                    "internalType": "uint256",
                    "name": "filledOrderId",
                    "type": "uint256"
                },
                {
                    "internalType": "uint256[]",
                    "name": "buyOrderIDs",
                    "type": "uint256[]"
                },
                {
                    "internalType": "address",
                    "name": "referrer",
                    "type": "address"
                }
            ],
            "name": "placeSellOrder",
            "outputs": [],
            "stateMutability": "nonpayable",
            "type": "function"
        },
        {
            "inputs": [],
            "name": "pointDecimals",
            "outputs": [
                {
                    "internalType": "uint8",
                    "name": "",
                    "type": "uint8"
                }
            ],
            "stateMutability": "pure",
            "type": "function"
        },
        {
            "inputs": [],
            "name": "proxiableUUID",
            "outputs": [
                {
                    "internalType": "bytes32",
                    "name": "",
                    "type": "bytes32"
                }
            ],
            "stateMutability": "view",
            "type": "function"
        },
        {
            "inputs": [
                {
                    "internalType": "address",
                    "name": "",
                    "type": "address"
                },
                {
                    "internalType": "uint256",
                    "name": "",
                    "type": "uint256"
                }
            ],
            "name": "refereesOf",
            "outputs": [
                {
                    "internalType": "address",
                    "name": "",
                    "type": "address"
                }
            ],
            "stateMutability": "view",
            "type": "function"
        },
        {
            "inputs": [],
            "name": "referralRoot",
            "outputs": [
                {
                    "internalType": "bytes32",
                    "name": "",
                    "type": "bytes32"
                }
            ],
            "stateMutability": "view",
            "type": "function"
        },
        {
            "inputs": [],
            "name": "renounceOwnership",
            "outputs": [],
            "stateMutability": "nonpayable",
            "type": "function"
        },
        {
            "inputs": [
                {
                    "internalType": "uint256",
                    "name": "",
                    "type": "uint256"
                },
                {
                    "internalType": "uint256",
                    "name": "",
                    "type": "uint256"
                }
            ],
            "name": "sellOrders",
            "outputs": [
                {
                    "internalType": "address",
                    "name": "trader",
                    "type": "address"
                },
                {
                    "internalType": "uint256",
                    "name": "price",
                    "type": "uint256"
                },
                {
                    "internalType": "uint256",
                    "name": "quantity",
                    "type": "uint256"
                }
            ],
            "stateMutability": "view",
            "type": "function"
        },
        {
            "inputs": [
                {
                    "internalType": "address",
                    "name": "_rewarder",
                    "type": "address"
                }
            ],
            "name": "setGeniRewarder",
            "outputs": [],
            "stateMutability": "nonpayable",
            "type": "function"
        },
        {
            "inputs": [
                {
                    "internalType": "bytes32",
                    "name": "_referralRoot",
                    "type": "bytes32"
                }
            ],
            "name": "setReferralRoot",
            "outputs": [],
            "stateMutability": "nonpayable",
            "type": "function"
        },
        {
            "inputs": [
                {
                    "internalType": "address",
                    "name": "_referrer",
                    "type": "address"
                }
            ],
            "name": "setReferrer",
            "outputs": [],
            "stateMutability": "nonpayable",
            "type": "function"
        },
        {
            "inputs": [
                {
                    "internalType": "address",
                    "name": "",
                    "type": "address"
                }
            ],
            "name": "tokens",
            "outputs": [
                {
                    "internalType": "string",
                    "name": "symbol",
                    "type": "string"
                },
                {
                    "internalType": "uint256",
                    "name": "usdMarketID",
                    "type": "uint256"
                },
                {
                    "internalType": "uint256",
                    "name": "minOrderAmount",
                    "type": "uint256"
                },
                {
                    "internalType": "uint256",
                    "name": "minTransferAmount",
                    "type": "uint256"
                },
                {
                    "internalType": "uint8",
                    "name": "decimals",
                    "type": "uint8"
                },
                {
                    "internalType": "bool",
                    "name": "isUSD",
                    "type": "bool"
                }
            ],
            "stateMutability": "view",
            "type": "function"
        },
        {
            "inputs": [],
            "name": "totalUnclaimedPoints",
            "outputs": [
                {
                    "internalType": "uint256",
                    "name": "",
                    "type": "uint256"
                }
            ],
            "stateMutability": "view",
            "type": "function"
        },
        {
            "inputs": [
                {
                    "internalType": "address",
                    "name": "newOwner",
                    "type": "address"
                }
            ],
            "name": "transferOwnership",
            "outputs": [],
            "stateMutability": "nonpayable",
            "type": "function"
        },
        {
            "inputs": [],
            "name": "unpause",
            "outputs": [],
            "stateMutability": "nonpayable",
            "type": "function"
        },
        {
            "inputs": [
                {
                    "internalType": "uint256",
                    "name": "marketId",
                    "type": "uint256"
                },
                {
                    "internalType": "bool",
                    "name": "isRewardable",
                    "type": "bool"
                }
            ],
            "name": "updateMarketIsRewardable",
            "outputs": [],
            "stateMutability": "nonpayable",
            "type": "function"
        },
        {
            "inputs": [
                {
                    "internalType": "address",
                    "name": "tokenAddress",
                    "type": "address"
                },
                {
                    "internalType": "uint256",
                    "name": "minOrderAmount",
                    "type": "uint256"
                }
            ],
            "name": "updateMinOrderAmount",
            "outputs": [],
            "stateMutability": "nonpayable",
            "type": "function"
        },
        {
            "inputs": [
                {
                    "internalType": "address",
                    "name": "tokenAddress",
                    "type": "address"
                },
                {
                    "internalType": "uint256",
                    "name": "minTransferAmount",
                    "type": "uint256"
                }
            ],
            "name": "updateMinTransferAmount",
            "outputs": [],
            "stateMutability": "nonpayable",
            "type": "function"
        },
        {
            "inputs": [
                {
                    "internalType": "address",
                    "name": "tokenAddress",
                    "type": "address"
                },
                {
                    "internalType": "bool",
                    "name": "isUSD",
                    "type": "bool"
                }
            ],
            "name": "updateTokenIsUSD",
            "outputs": [],
            "stateMutability": "nonpayable",
            "type": "function"
        },
        {
            "inputs": [
                {
                    "internalType": "address",
                    "name": "tokenAddress",
                    "type": "address"
                },
                {
                    "internalType": "uint256",
                    "name": "marketID",
                    "type": "uint256"
                }
            ],
            "name": "updateUSDMarketID",
            "outputs": [],
            "stateMutability": "nonpayable",
            "type": "function"
        },
        {
            "inputs": [
                {
                    "internalType": "address",
                    "name": "newImplementation",
                    "type": "address"
                },
                {
                    "internalType": "bytes",
                    "name": "data",
                    "type": "bytes"
                }
            ],
            "name": "upgradeToAndCall",
            "outputs": [],
            "stateMutability": "payable",
            "type": "function"
        },
        {
            "inputs": [
                {
                    "internalType": "address",
                    "name": "",
                    "type": "address"
                }
            ],
            "name": "userPoints",
            "outputs": [
                {
                    "internalType": "uint256",
                    "name": "",
                    "type": "uint256"
                }
            ],
            "stateMutability": "view",
            "type": "function"
        },
        {
            "inputs": [
                {
                    "internalType": "address",
                    "name": "",
                    "type": "address"
                }
            ],
            "name": "userReferrer",
            "outputs": [
                {
                    "internalType": "address",
                    "name": "",
                    "type": "address"
                }
            ],
            "stateMutability": "view",
            "type": "function"
        },
        {
            "inputs": [
                {
                    "internalType": "uint256",
                    "name": "amount",
                    "type": "uint256"
                }
            ],
            "name": "withdrawEth",
            "outputs": [],
            "stateMutability": "nonpayable",
            "type": "function"
        },
        {
            "inputs": [
                {
                    "internalType": "address",
                    "name": "tokenAddress",
                    "type": "address"
                },
                {
                    "internalType": "uint256",
                    "name": "normalizedAmount",
                    "type": "uint256"
                }
            ],
            "name": "withdrawToken",
            "outputs": [],
            "stateMutability": "nonpayable",
            "type": "function"
        }
    ],
    "bytecode": "0x60a060405230608052348015610013575f5ffd5b5061001c610021565b6100d3565b7ff0c57e16840df040f15088dc2f81fe391c3923bec73e23a9662efc9c229c6a00805468010000000000000000900460ff16156100715760405163f92ee8a960e01b815260040160405180910390fd5b80546001600160401b03908116146100d05780546001600160401b0319166001600160401b0390811782556040519081527fc7f505b2f371ae2175ee4913f4499e1f2633a7b5936321eed1cdaeb6115181d29060200160405180910390a15b50565b608051615f9d6100f95f395f81816143e30152818161440c01526145c10152615f9d5ff3fe6080604052600436106103a8575f3560e01c80637c3fcc38116101e9578063c311d04911610108578063e51dfd901161009d578063f50ddbc71161006d578063f50ddbc714610ca4578063f5ebe99914610ccf578063f9b6efda14610d52578063fff3c5b414610d71575f5ffd5b8063e51dfd9014610c1b578063e89380d714610c3a578063eb44fdd314610c59578063f2fde38b14610c85575f5ffd5b8063d499bc85116100d8578063d499bc8514610b8f578063d6eb250514610bbb578063db1cc12b14610bd6578063e486033914610bea575f5ffd5b8063c311d04914610b07578063c4504fca14610b26578063c4d66de814610b51578063ce98b36214610b70575f5ffd5b8063a8d0e3391161017e578063b1283e771161014e578063b1283e7714610a62578063b2cfe77a14610a95578063b3f0067414610aaa578063c23f001f14610ad1575f5ffd5b8063a8d0e3391461098b578063ad3cb1cc146109b8578063aeefe31f14610a0d578063b0772d0b14610a41575f5ffd5b80638da5cb5b116101b95780638da5cb5b146108f25780639e281a981461092e578063a18a7bfc1461094d578063a56602ad1461096c575f5ffd5b80637c3fcc381461086c5780638456cb59146108a05780638c748334146108b45780638d76bed5146108d3575f5ffd5b80634f1b8d5b116102d55780635cb18e451161026a5780637013c9b81161023a5780637013c9b81461079a57806370ed0ada146107b9578063715018a6146107e45780637813b816146107f8575f5ffd5b80635cb18e4514610715578063659e4d10146107345780636a146024146107605780636d75938d1461077b575f5ffd5b80635679e849116102a55780635679e84914610652578063579bd8b214610696578063586bdba5146106b55780635c975abb146106d4575f5ffd5b80634f1b8d5b146105eb5780634f1ef2861461061657806352d1902d14610629578063542369301461063d575f5ffd5b8063338b5dea1161034b578063442d65181161031b578063442d65181461054a57806346a0fe471461056957806347fa1cc1146105955780634a9fefc7146105b4575f5ffd5b8063338b5dea146104ce5780633aecd0e3146104ed5780633f4ba83a1461052e578063439370b114610542575f5ffd5b80630dcc49c9116103865780630dcc49c914610437578063247608071461045657806327b692f21461046b5780632dfca3f2146104a2575f5ffd5b80630273c453146103ac57806303632bac146103ea5780630da17c3b1461040b575b5f5ffd5b3480156103b7575f5ffd5b506103d76103c63660046152b1565b5f9081526001602052604090205490565b6040519081526020015b60405180910390f35b3480156103f5575f5ffd5b50610409610404366004615310565b610d90565b005b348015610416575f5ffd5b5061042a61042536600461538a565b610f65565b6040516103e191906153c0565b348015610442575f5ffd5b5061040961045136600461543d565b61113f565b348015610461575f5ffd5b506103d760095481565b348015610476575f5ffd5b5061048a61048536600461543d565b611165565b6040516001600160a01b0390911681526020016103e1565b3480156104ad575f5ffd5b506104c16104bc366004615465565b611199565b6040516103e19190615485565b3480156104d9575f5ffd5b506104096104e836600461543d565b61134d565b3480156104f8575f5ffd5b506103d76105073660046154eb565b335f9081526005602090815260408083206001600160a01b03949094168352929052205490565b348015610539575f5ffd5b50610409611654565b610409611666565b348015610555575f5ffd5b5061040961056436600461543d565b611750565b348015610574575f5ffd5b50610588610583366004615504565b611859565b6040516103e19190615571565b3480156105a0575f5ffd5b506104096105af36600461543d565b611acf565b3480156105bf575f5ffd5b5061048a6105ce3660046154eb565b6001600160a01b039081165f908152600760205260409020541690565b3480156105f6575f5ffd5b506103d76106053660046152b1565b60046020525f908152604090205481565b6104096106243660046156bb565b611af6565b348015610634575f5ffd5b506103d7611b11565b348015610648575f5ffd5b506103d7600a5481565b34801561065d575f5ffd5b5061067161066c366004615465565b611b3f565b604080516001600160a01b0390941684526020840192909252908201526060016103e1565b3480156106a1575f5ffd5b506106716106b0366004615465565b611b87565b3480156106c0575f5ffd5b506104096106cf366004615746565b611ba0565b3480156106df575f5ffd5b507fcd5ed15c6e187e77e9aee88184c21f4f2182ab5827cb3b7e07fbedcd63f033005460ff1660405190151581526020016103e1565b348015610720575f5ffd5b5061040961072f3660046157bb565b612024565b34801561073f575f5ffd5b5061075361074e3660046157f5565b6122c3565b6040516103e19190615825565b34801561076b575f5ffd5b506103d7670de0b6b3a764000081565b348015610786575f5ffd5b5061040961079536600461586b565b612417565b3480156107a5575f5ffd5b506104096107b43660046152b1565b612478565b3480156107c4575f5ffd5b50335f9081526005602090815260408083208380529091529020546103d7565b3480156107ef575f5ffd5b50610409612485565b348015610803575f5ffd5b506103d7610812366004615895565b604080517fffffffffffffffffffffffffffffffffffffffff000000000000000000000000606094851b81166020808401919091529390941b90931660348401528051808403602801815260489093019052815191012090565b348015610877575f5ffd5b5061048a6108863660046154eb565b60076020525f90815260409020546001600160a01b031681565b3480156108ab575f5ffd5b50610409612496565b3480156108bf575f5ffd5b506104096108ce366004615465565b6124a6565b3480156108de575f5ffd5b506104096108ed3660046154eb565b612620565b3480156108fd575f5ffd5b507f9016d09d72d40fdae2fd8ceac6b6234c7706214fd39c1cd1e609a0528c199300546001600160a01b031661048a565b348015610939575f5ffd5b5061040961094836600461543d565b6126e6565b348015610958575f5ffd5b506104096109673660046154eb565b612a66565b348015610977575f5ffd5b5061040961098636600461543d565b612bd5565b348015610996575f5ffd5b506109aa6109a53660046154eb565b612bfb565b6040516103e19291906158bd565b3480156109c3575f5ffd5b50610a006040518060400160405280600581526020017f352e302e3000000000000000000000000000000000000000000000000000000081525081565b6040516103e191906158e1565b348015610a18575f5ffd5b506103d7610a273660046154eb565b6001600160a01b03165f9081526006602052604090205490565b348015610a4c575f5ffd5b50610a55612d95565b6040516103e1919061597d565b348015610a6d575f5ffd5b50610a81610a7c3660046152b1565b612f89565b6040516103e19897969594939291906159f2565b348015610aa0575f5ffd5b506103d7600b5481565b348015610ab5575f5ffd5b5061048a7390f79bf6eb2c4f870365e785982e1f101e93b90681565b348015610adc575f5ffd5b506103d7610aeb366004615895565b600560209081525f928352604080842090915290825290205481565b348015610b12575f5ffd5b50610409610b213660046152b1565b613077565b348015610b31575f5ffd5b506103d7610b403660046152b1565b5f9081526002602052604090205490565b348015610b5c575f5ffd5b50610409610b6b3660046154eb565b613244565b348015610b7b575f5ffd5b50610409610b8a366004615746565b6133ac565b348015610b9a575f5ffd5b50610bae610ba93660046154eb565b613957565b6040516103e19190615a4a565b348015610bc6575f5ffd5b50604051601281526020016103e1565b348015610be1575f5ffd5b50600a546103d7565b348015610bf5575f5ffd5b50610c09610c043660046154eb565b6139ca565b6040516103e196959493929190615a8a565b348015610c26575f5ffd5b50610409610c35366004615465565b613a8a565b348015610c45575f5ffd5b50610409610c54366004615aca565b613bc9565b348015610c64575f5ffd5b50610c78610c733660046152b1565b613cc3565b6040516103e19190615af2565b348015610c90575f5ffd5b50610409610c9f3660046154eb565b613e21565b348015610caf575f5ffd5b506103d7610cbe3660046154eb565b60066020525f908152604090205481565b348015610cda575f5ffd5b506103d7610ce9366004615895565b604080517fffffffffffffffffffffffffffffffffffffffff000000000000000000000000606094851b81166020808401919091529390941b909316603484015280518084036028018152604890930181528251928201929092205f9081526004909152205490565b348015610d5d575f5ffd5b50600c5461048a906001600160a01b031681565b348015610d7c575f5ffd5b506104c1610d8b366004615465565b613e74565b600b54610dc9576040517f3a338ce500000000000000000000000000000000000000000000000000000000815260040160405180910390fd5b5f338383604051602001610ddf93929190615b04565b60408051601f1981840301815282825280516020918201209083015201604051602081830303815290604052805190602001209050610e548585808060200260200160405190810160405280939291908181526020018383602002808284375f9201919091525050600b54915084905061401c565b610e8a576040517f09bde33900000000000000000000000000000000000000000000000000000000815260040160405180910390fd5b5f5b82811015610f5d575f848483818110610ea757610ea7615b5f565b9050602002016020810190610ebc91906154eb565b6001600160a01b038082165f9081526007602052604090205491925016158015610eef57506001600160a01b0381163314155b15610f54576001600160a01b0381165f81815260076020908152604080832080543373ffffffffffffffffffffffffffffffffffffffff1991821681179092559084526008835290832080546001810182559084529190922001805490911690911790555b50600101610e8c565b505050505050565b60605f80866001811115610f7b57610f7b615b73565b03610f9357505f848152600160205260409020610fa2565b505f8481526002602052604090205b805480851061100757604080515f8082526020820190925290610ffd565b610fea60405180606001604052805f6001600160a01b031681526020015f81526020015f81525090565b815260200190600190039081610fc05790505b5092505050611137565b5f6110128587615b9b565b90508181111561101f5750805b5f61102a8783615bae565b90508067ffffffffffffffff8111156110455761104561564f565b6040519080825280602002602001820160405280156110a057816020015b61108d60405180606001604052805f6001600160a01b031681526020015f81526020015f81525090565b8152602001906001900390816110635790505b5094505f5b8181101561113157846110b8828a615b9b565b815481106110c8576110c8615b5f565b5f91825260209182902060408051606081018252600390930290910180546001600160a01b0316835260018101549383019390935260029092015491810191909152865187908390811061111e5761111e615b5f565b60209081029190910101526001016110a5565b50505050505b949350505050565b611147614031565b6001600160a01b039091165f90815260036020526040902060010155565b6008602052815f5260405f20818154811061117e575f80fd5b5f918252602090912001546001600160a01b03169150829050565b5f8281526001602052604081208054606092805b828110156111f357858482815481106111c8576111c8615b5f565b905f5260205f20906003020160010154106111eb57816111e781615bc1565b9250505b6001016111ad565b508067ffffffffffffffff81111561120d5761120d61564f565b60405190808252806020026020018201604052801561126e57816020015b61125b60405180608001604052805f81526020015f6001600160a01b031681526020015f81526020015f81525090565b81526020019060019003908161122b5790505b5093505f805b83811015611341578685828154811061128f5761128f615b5f565b905f5260205f2090600302016001015410611339575f8582815481106112b7576112b7615b5f565b905f5260205f20906003020190506040518060800160405280838152602001825f015f9054906101000a90046001600160a01b03166001600160a01b0316815260200182600101548152602001826002015481525087848151811061131e5761131e615b5f565b6020026020010181905250828061133490615bc1565b935050505b600101611274565b50505050505b92915050565b6113556140a5565b61135d61412b565b6001600160a01b0382165f908152600360205260409020600481015460ff16806113c3576040517f42f22db50000000000000000000000000000000000000000000000000000000081526001600160a01b03851660048201526024015b60405180910390fd5b5f6113d084601284614187565b905060128260ff1610156113ed576113ea81836012614187565b93505b60018410806113fc5750600181105b1561143d576040517f02d2d93800000000000000000000000000000000000000000000000000000000815260048101859052600160248201526044016113ba565b6040517f70a0823100000000000000000000000000000000000000000000000000000000815230600482015285905f906001600160a01b038316906370a0823190602401602060405180830381865afa15801561149c573d5f5f3e3d5ffd5b505050506040513d601f19601f820116820180604052508101906114c09190615bd9565b90506114d76001600160a01b0383163330866142ba565b6040517f70a082310000000000000000000000000000000000000000000000000000000081523060048201525f9082906001600160a01b038516906370a0823190602401602060405180830381865afa158015611536573d5f5f3e3d5ffd5b505050506040513d601f19601f8201168201806040525081019061155a9190615bd9565b6115649190615bae565b90505f81116115b55760405162461bcd60e51b815260206004820152601260248201527f6e6f20746f6b656e73207265636569766564000000000000000000000000000060448201526064016113ba565b8381146115cb576115c881866012614187565b96505b335f9081526005602090815260408083206001600160a01b038c168452909152812080548992906115fd908490615b9b565b90915550506040518781526001600160a01b0389169033907f5548c837ab068cf56a2c2479df0882a4922fd203edb7517321831d95078c5f629060200160405180910390a350505050505061165061433c565b5050565b61165c614031565b611664614366565b565b61166e6140a5565b61167661412b565b5f805260036020527f3617319a054d772f909f7c479a2cebe5066e836a939412e32403c99029b92f02543481106116e2576040517f02d2d938000000000000000000000000000000000000000000000000000000008152346004820152602481018290526044016113ba565b335f9081526005602090815260408083208380529091528120805434929061170b908490615b9b565b90915550506040513481525f9033907f5548c837ab068cf56a2c2479df0882a4922fd203edb7517321831d95078c5f629060200160405180910390a35061166461433c565b600c546001600160a01b031633146117aa5760405162461bcd60e51b815260206004820152601f60248201527f4f6e6c79205265776172644469737472696275746f722063616e2063616c6c0060448201526064016113ba565b6001600160a01b0382165f908152600660205260409020548111156118115760405162461bcd60e51b815260206004820152601160248201527f4e6f7420656e6f75676820706f696e747300000000000000000000000000000060448201526064016113ba565b6001600160a01b0382165f9081526006602052604081208054839290611838908490615bae565b9250508190555080600a5f8282546118509190615bae565b90915550505050565b6060815f8167ffffffffffffffff8111156118765761187661564f565b6040519080825280602002602001820160405280156118ef57816020015b6118dc6040518060e001604052805f6001600160a01b03168152602001606081526020015f81526020015f81526020015f81526020015f60ff1681526020015f151581525090565b8152602001906001900390816118945790505b5090505f5b82811015611ac6575f60035f88888581811061191257611912615b5f565b905060200201602081019061192791906154eb565b6001600160a01b03166001600160a01b031681526020019081526020015f206040518060c00160405290815f8201805461196090615bf0565b80601f016020809104026020016040519081016040528092919081815260200182805461198c90615bf0565b80156119d75780601f106119ae576101008083540402835291602001916119d7565b820191905f5260205f20905b8154815290600101906020018083116119ba57829003601f168201915b50505091835250506001820154602082015260028201546040808301919091526003830154606083015260049092015460ff808216608084015261010090910416151560a090910152805160e0810190915290915080888885818110611a3f57611a3f615b5f565b9050602002016020810190611a5491906154eb565b6001600160a01b03168152602001825f01518152602001826020015181526020018260400151815260200182606001518152602001826080015160ff1681526020018260a001511515815250838381518110611ab257611ab2615b5f565b6020908102919091010152506001016118f4565b50949350505050565b611ad7614031565b6001600160a01b039091165f9081526003602081905260409091200155565b611afe6143d8565b611b07826144a8565b61165082826144b0565b5f611b1a6145b6565b507f360894a13ba1a3210667c828492db98dca3e2076cc3735a920a3ca505d382bbc90565b6002602052815f5260405f208181548110611b58575f80fd5b5f9182526020909120600390910201805460018201546002909201546001600160a01b03909116935090915083565b6001602052815f5260405f208181548110611b58575f80fd5b611ba86140a5565b611bb061412b565b600954871115611bfa576009546040517fff2ead960000000000000000000000000000000000000000000000000000000081526113ba918991600401918252602082015260400190565b5f87815260208181526040808320815160808101835260048201546001600160a01b03908116825260058301548116828601528184018690526060820186905233865260079094529190932054909116158015611c5f57506001600160a01b03831615155b8015611c7457506001600160a01b0383163314155b15611cd957335f81815260076020908152604080832080546001600160a01b03891673ffffffffffffffffffffffffffffffffffffffff1991821681179092559084526008835290832080546001810182559084529190922001805490911690911790555b670de0b6b3a7640000611cec888a615c22565b611cf69190615c4d565b606082019081526020808301516001600160a01b03165f9081526003909152604090206002015490511015611d865760608101516020808301516001600160a01b03165f90815260039091526040908190206002015490517fff11d261000000000000000000000000000000000000000000000000000000008152600481019290925260248201526044016113ba565b604080516060810182523380825260208083018c90528284018b90525f9182526005815283822085516001600160a01b031683529081905292902054909190891115611e235782516001600160a01b03165f90815260208290526040908190205490517fcf4791810000000000000000000000000000000000000000000000000000000081526004810191909152602481018a90526044016113ba565b5f8b8152600260205260409020611e3e8c86858b8b89614618565b60408086019190915284516001600160a01b03165f908152602084905290812080548c9290611e6e908490615bae565b909155505060408301515f9015611f8a5781548a108015611eb057505f828b81548110611e9d57611e9d615b5f565b905f5260205f2090600302016002015411155b15611f215783828b81548110611ec857611ec8615b5f565b5f918252602091829020835160039290920201805473ffffffffffffffffffffffffffffffffffffffff19166001600160a01b039092169190911781559082015160018201556040909101516002909101555088611f8a565b8154600180820184555f8481526020908190208751600390940201805473ffffffffffffffffffffffffffffffffffffffff19166001600160a01b039094169390931783558601518282015560408601516002909201919091558254611f879190615bae565b90505b835f01516001600160a01b03168d7f73f689af9e0ede3be705016e6acb7ca712e41977153d81ce4c8d52491089f617838f8f89604001518b604001518e6040516120059695949392919095865260208601949094526040850192909252606084015260808301526001600160a01b031660a082015260c00190565b60405180910390a350505050505061201b61433c565b50505050505050565b61202c614031565b6060805f5f61203a87612bfb565b909450915061204886612bfb565b9093509050841580159061207457506001600160a01b0386165f90815260036020526040902060020154155b15612097576001600160a01b0386165f9081526003602052604090206002018590555b60408051606089811b7fffffffffffffffffffffffffffffffffffffffff000000000000000000000000908116602080850191909152918a901b16603483015282516028818403018152604890920190925280519101205f905f818152600460205260409020549091501561214e5760405162461bcd60e51b815260206004820152601660248201527f4d61726b657420616c7265616479206578697374732e0000000000000000000060448201526064016113ba565b60098054905f61215d83615bc1565b90915550506040805161010081019091528061217e87876101208401615c83565b60408051601f1981840301815291815290825260095460208381018290525f848401819052606085018190526001600160a01b03808f1660808701528d1660a08601523360c086015260e09094018490529083528290529020815181906121e59082615d02565b5060208281015160018301556040808401516002840155606084015160038401556080840151600480850180546001600160a01b0393841673ffffffffffffffffffffffffffffffffffffffff199182161790915560a08701516005870180549185169190921617905560c08601516006909501805460e090970151151574010000000000000000000000000000000000000000027fffffffffffffffffffffff0000000000000000000000000000000000000000009097169590921694909417949094179093556009545f94855291905291205550505050505050565b60605f808560018111156122d9576122d9615b73565b036122f157505f838152600160205260409020612300565b505f8381526002602052604090205b80545f805b828110156123525783818154811061231f5761231f615b5f565b905f5260205f209060030201600201545f0361234a578161233f81615bc1565b925050858211612352575b600101612305565b505f8167ffffffffffffffff81111561236d5761236d61564f565b604051908082528060200260200182016040528015612396578160200160208202803683370190505b5090505f805b84811015612407578581815481106123b6576123b6615b5f565b905f5260205f209060030201600201545f036123ff57808383815181106123df576123df615b5f565b6020908102919091010152816123f481615bc1565b925050878411612407575b60010161239c565b50909450505050505b9392505050565b61241f614031565b5f91825260208290526040909120600601805491151574010000000000000000000000000000000000000000027fffffffffffffffffffffff00ffffffffffffffffffffffffffffffffffffffff909216919091179055565b612480614031565b600b55565b61248d614031565b6116645f6148e5565b61249e614031565b611664614962565b6124ae6140a5565b6124b661412b565b5f82815260208181526040808320600501546001909252822080546001600160a01b039092169291849081106124ee576124ee615b5f565b5f918252602090912060039091020180549091506001600160a01b0316338114612555576040517f295a81c10000000000000000000000000000000000000000000000000000000081523360048201526001600160a01b03821660248201526044016113ba565b60028201545f819003612597576040517f3743a9d4000000000000000000000000000000000000000000000000000000008152600481018690526024016113ba565b5f670de0b6b3a76400008460010154836125b19190615c22565b6125bb9190615c4d565b5f600286015590506125cc816149bd565b6125d69082615b9b565b6001600160a01b038085165f908152600560209081526040808320938a168352929052908120805490919061260c908490615b9b565b92505081905550505050505061165061433c565b612628614031565b6001600160a01b03811661267e5760405162461bcd60e51b815260206004820152600c60248201527f7265776172646572203d2030000000000000000000000000000000000000000060448201526064016113ba565b600c546040516001600160a01b038084169216907fb8721417ebf5e79c86d4caa0e48fda0d0a48447b4137d9d1f76fa76143499237905f90a3600c805473ffffffffffffffffffffffffffffffffffffffff19166001600160a01b0392909216919091179055565b6126ee6140a5565b335f9081526005602090815260408083206001600160a01b038616845290915290205480821115612755576040517fcf47918100000000000000000000000000000000000000000000000000000000815260048101829052602481018390526044016113ba565b6001600160a01b0383165f908152600360205260409020600481015460ff16806127b6576040517f42f22db50000000000000000000000000000000000000000000000000000000081526001600160a01b03861660048201526024016113ba565b5f6127c385601284614187565b905060128260ff1610156127e0576127dd81836012614187565b94505b5f811161282f5760405162461bcd60e51b815260206004820152601960248201527f576974686472617720616d6f756e7420746f6f20736d616c6c0000000000000060448201526064016113ba565b845f0361287e5760405162461bcd60e51b815260206004820152600860248201527f616d6f756e743d3000000000000000000000000000000000000000000000000060448201526064016113ba565b6128888585615bae565b335f9081526005602090815260408083206001600160a01b038b1680855292528083209390935591517f70a082310000000000000000000000000000000000000000000000000000000081523060048201528892906370a0823190602401602060405180830381865afa158015612901573d5f5f3e3d5ffd5b505050506040513d601f19601f820116820180604052508101906129259190615bd9565b905061293b6001600160a01b03831633856149ca565b6040517f70a082310000000000000000000000000000000000000000000000000000000081523060048201525f906001600160a01b038416906370a0823190602401602060405180830381865afa158015612998573d5f5f3e3d5ffd5b505050506040513d601f19601f820116820180604052508101906129bc9190615bd9565b9050836129c98284615bae565b1115612a175760405162461bcd60e51b815260206004820152601160248201527f7472616e73666572206d69736d6174636800000000000000000000000000000060448201526064016113ba565b6040518881526001600160a01b038a169033907f2717ead6b9200dd235aad468c9809ea400fe33ac69b5bfaa6d3e90fc922b63989060200160405180910390a35050505050505061165061433c565b335f908152600760205260409020546001600160a01b031615612acb5760405162461bcd60e51b815260206004820152601460248201527f526566657272657220616c72656164792073657400000000000000000000000060448201526064016113ba565b6001600160a01b038116612b215760405162461bcd60e51b815260206004820152601860248201527f496e76616c69642072656665727265722061646472657373000000000000000060448201526064016113ba565b336001600160a01b03821603612b795760405162461bcd60e51b815260206004820152601560248201527f43616e6e6f7420726566657220796f757273656c66000000000000000000000060448201526064016113ba565b335f81815260076020908152604080832080546001600160a01b0390961673ffffffffffffffffffffffffffffffffffffffff199687168117909155835260088252822080546001810182559083529120018054909216179055565b612bdd614031565b6001600160a01b039091165f90815260036020526040902060020155565b6001600160a01b0381165f9081526003602052604081208054606092919082908290612c2690615bf0565b90501115612cce5760048101548154829160ff16908290612c4690615bf0565b80601f0160208091040260200160405190810160405280929190818152602001828054612c7290615bf0565b8015612cbd5780601f10612c9457610100808354040283529160200191612cbd565b820191905f5260205f20905b815481529060010190602001808311612ca057829003601f168201915b505050505091509250925050915091565b6001600160a01b038416612d1d576040518060400160405280600381526020017f4554480000000000000000000000000000000000000000000000000000000000815250925060129150612d46565b612d2f846001600160a01b03166149fb565b9250612d43846001600160a01b0316614aa0565b91505b6001600160a01b0384165f908152600360205260409020612d678482615d02565b50506001600160a01b03929092165f908152600360205260409020600401805460ff191660ff841617905591565b60605f60095467ffffffffffffffff811115612db357612db361564f565b604051908082528060200260200182016040528015612e2157816020015b604080516101008101825260608082525f60208084018290529383018190529082018190526080820181905260a0820181905260c0820181905260e082015282525f19909201910181612dd15790505b50905060015b6009548111612f83575f818152602081905260409081902081516101008101909252805482908290612e5890615bf0565b80601f0160208091040260200160405190810160405280929190818152602001828054612e8490615bf0565b8015612ecf5780601f10612ea657610100808354040283529160200191612ecf565b820191905f5260205f20905b815481529060010190602001808311612eb257829003601f168201915b50505091835250506001828101546020830152600283015460408301526003830154606083015260048301546001600160a01b0390811660808401526005840154811660a084015260069093015492831660c08301527401000000000000000000000000000000000000000090920460ff16151560e0909101528390612f559084615bae565b81518110612f6557612f65615b5f565b60200260200101819052508080612f7b90615bc1565b915050612e27565b50919050565b5f60208190529081526040902080548190612fa390615bf0565b80601f0160208091040260200160405190810160405280929190818152602001828054612fcf90615bf0565b801561301a5780601f10612ff15761010080835404028352916020019161301a565b820191905f5260205f20905b815481529060010190602001808311612ffd57829003601f168201915b50505050600183015460028401546003850154600486015460058701546006909701549596939592945090926001600160a01b03918216929082169181169074010000000000000000000000000000000000000000900460ff1688565b61307f6140a5565b61308761412b565b5f805260036020527f3617319a054d772f909f7c479a2cebe5066e836a939412e32403c99029b92f02548082116130f4576040517f02d2d93800000000000000000000000000000000000000000000000000000000815260048101839052602481018290526044016113ba565b335f90815260056020908152604080832083805290915290205482111561316d57335f908152600560209081526040808320838052909152908190205490517fcf4791810000000000000000000000000000000000000000000000000000000081526004810191909152602481018390526044016113ba565b335f90815260056020908152604080832083805290915281208054849290613196908490615bae565b90915550506040518281525f9033907f2717ead6b9200dd235aad468c9809ea400fe33ac69b5bfaa6d3e90fc922b63989060200160405180910390a36040515f90339084156108fc0290859084818181858888f19350505050905080613237576040517fbf182be8000000000000000000000000000000000000000000000000000000008152306004820152336024820152604481018490526064016113ba565b505061324161433c565b50565b5f61324d614af8565b805490915060ff68010000000000000000820416159067ffffffffffffffff165f811580156132795750825b90505f8267ffffffffffffffff1660011480156132955750303b155b9050811580156132a3575080155b156132da576040517ff92ee8a900000000000000000000000000000000000000000000000000000000815260040160405180910390fd5b84547fffffffffffffffffffffffffffffffffffffffffffffffff0000000000000000166001178555831561333b5784547fffffffffffffffffffffffffffffffffffffffffffffff00ffffffffffffffff16680100000000000000001785555b61334486614b20565b8315610f5d5784547fffffffffffffffffffffffffffffffffffffffffffffff00ffffffffffffffff168555604051600181527fc7f505b2f371ae2175ee4913f4499e1f2633a7b5936321eed1cdaeb6115181d29060200160405180910390a1505050505050565b6133b46140a5565b6133bc61412b565b600954871115613406576009546040517fff2ead960000000000000000000000000000000000000000000000000000000081526113ba918991600401918252602082015260400190565b5f87815260208181526040808320815160e08101835260048201546001600160a01b039081168252600583015481168286015281840186905260608083018790526080830187905260a0830187905260c0830187905284519081018552338082528187018e90528186018d9052875260079095529290942054909392911615801561349957506001600160a01b03841615155b80156134ae57506001600160a01b0384163314155b1561351357335f81815260076020908152604080832080546001600160a01b038a1673ffffffffffffffffffffffffffffffffffffffff1991821681179092559084526008835290832080546001810182559084529190922001805490911690911790555b670de0b6b3a7640000613526898b615c22565b6135309190615c4d565b60408084019182526020808501516001600160a01b03165f90815260039091522060020154905110156135bd576040808301516020808501516001600160a01b03165f90815260039091528290206002015491517fff11d2610000000000000000000000000000000000000000000000000000000081526113ba9290600401918252602082015260400190565b80516001600160a01b03165f9081526005602052604090819020908301516135e4906149bd565b83604001516135f39190615b9b565b6020808501516001600160a01b03165f908152908390526040902054101561369357805f84602001516001600160a01b03166001600160a01b031681526020019081526020015f205461364984604001516149bd565b84604001516136589190615b9b565b6040517fcf479181000000000000000000000000000000000000000000000000000000008152600481019290925260248201526044016113ba565b6136a18b85848a8a88614b51565b60a085015260608401526040820151670de0b6b3a7640000906136c4908c615c22565b6136ce9190615c4d565b60c0840181905260608401516136e49190615b9b565b608084018190526136f4906149bd565b83608001516137039190615b9b565b6020808501516001600160a01b03165f9081529083905260408120805490919061372e908490615bae565b90915550506060830151613741906149bd565b61374c906002615c22565b7390f79bf6eb2c4f870365e785982e1f101e93b9065f90815260056020908152858101516001600160a01b031682527f0746990d76fdc5474f74762eb31af098f8997074df7309c2c5af96715de9f25090526040812080549091906137b2908490615b9b565b90915550505f8b815260016020526040812060c0850151909190156138dc5781548a10801561380257505f828b815481106137ef576137ef615b5f565b905f5260205f2090600302016002015411155b156138735783828b8154811061381a5761381a615b5f565b5f918252602091829020835160039290920201805473ffffffffffffffffffffffffffffffffffffffff19166001600160a01b0390921691909117815590820151600182015560409091015160029091015550886138dc565b8154600180820184555f8481526020908190208751600390940201805473ffffffffffffffffffffffffffffffffffffffff19166001600160a01b0390941693909317835586015182820155604086015160029092019190915582546138d99190615bae565b90505b835f01516001600160a01b03168d7f2cc14042e8b7b9902bfb244b105f35db012ae1d8a17c9cd6ae164a799e65287b838f8f89604001518b60a001518e6040516120059695949392919095865260208601949094526040850192909252606084015260808301526001600160a01b031660a082015260c00190565b6001600160a01b0381165f908152600860209081526040918290208054835181840281018401909452808452606093928301828280156139be57602002820191905f5260205f20905b81546001600160a01b031681526001909101906020018083116139a0575b50505050509050919050565b60036020525f90815260409020805481906139e490615bf0565b80601f0160208091040260200160405190810160405280929190818152602001828054613a1090615bf0565b8015613a5b5780601f10613a3257610100808354040283529160200191613a5b565b820191905f5260205f20905b815481529060010190602001808311613a3e57829003601f168201915b505050506001830154600284015460038501546004909501549394919390925060ff8082169161010090041686565b613a926140a5565b613a9a61412b565b5f82815260208181526040808320600401546002909252822080546001600160a01b03909216929184908110613ad257613ad2615b5f565b5f918252602090912060039091020180549091506001600160a01b0316338114613b39576040517f295a81c10000000000000000000000000000000000000000000000000000000081523360048201526001600160a01b03821660248201526044016113ba565b60028201545f819003613b7b576040517f3743a9d4000000000000000000000000000000000000000000000000000000008152600481018690526024016113ba565b5f600284018190556001600160a01b038084168252600560209081526040808420928816845291905281208054839290613bb6908490615b9b565b925050819055505050505061165061433c565b613bd1614031565b6001600160a01b0382165f81815260036020908152604091829020600490810180547fffffffffffffffffffffffffffffffffffffffffffffffffffffffffffff00ff166101008715150217905582517f313ce567000000000000000000000000000000000000000000000000000000008152925186949363313ce56793818401939092918290030181865afa158015613c6d573d5f5f3e3d5ffd5b505050506040513d601f19601f82011682018060405250810190613c919190615dbd565b6001600160a01b03939093165f908152600360205260409020600401805460ff191660ff909416939093179092555050565b604080516101008101825260608082525f6020830181905292820183905281018290526080810182905260a0810182905260c0810182905260e08101919091525f828152602081905260409081902081516101008101909252805482908290613d2b90615bf0565b80601f0160208091040260200160405190810160405280929190818152602001828054613d5790615bf0565b8015613da25780601f10613d7957610100808354040283529160200191613da2565b820191905f5260205f20905b815481529060010190602001808311613d8557829003601f168201915b505050918352505060018201546020820152600282015460408201526003820154606082015260048201546001600160a01b0390811660808301526005830154811660a083015260069092015491821660c08201527401000000000000000000000000000000000000000090910460ff16151560e09091015292915050565b613e29614031565b6001600160a01b038116613e6b576040517f1e4fbdf70000000000000000000000000000000000000000000000000000000081525f60048201526024016113ba565b613241816148e5565b5f8281526002602052604081208054606092805b82811015613ece5785848281548110613ea357613ea3615b5f565b905f5260205f2090600302016001015411613ec65781613ec281615bc1565b9250505b600101613e88565b508067ffffffffffffffff811115613ee857613ee861564f565b604051908082528060200260200182016040528015613f4957816020015b613f3660405180608001604052805f81526020015f6001600160a01b031681526020015f81526020015f81525090565b815260200190600190039081613f065790505b5093505f805b838110156113415786858281548110613f6a57613f6a615b5f565b905f5260205f2090600302016001015411614014575f858281548110613f9257613f92615b5f565b905f5260205f20906003020190506040518060800160405280838152602001825f015f9054906101000a90046001600160a01b03166001600160a01b03168152602001826001015481526020018260020154815250878481518110613ff957613ff9615b5f565b6020026020010181905250828061400f90615bc1565b935050505b600101613f4f565b5f826140288584614da5565b14949350505050565b336140637f9016d09d72d40fdae2fd8ceac6b6234c7706214fd39c1cd1e609a0528c199300546001600160a01b031690565b6001600160a01b031614611664576040517f118cdaa70000000000000000000000000000000000000000000000000000000081523360048201526024016113ba565b7f9b779b17422d0df92223018b32b4d1fa46e071723d6817e2486d003becc55f005c156140fe576040517f3ee5aeb500000000000000000000000000000000000000000000000000000000815260040160405180910390fd5b61166460017f9b779b17422d0df92223018b32b4d1fa46e071723d6817e2486d003becc55f005b90614de7565b7fcd5ed15c6e187e77e9aee88184c21f4f2182ab5827cb3b7e07fbedcd63f033005460ff1615611664576040517fd93c066500000000000000000000000000000000000000000000000000000000815260040160405180910390fd5b5f60248360ff16111580156141a0575060248260ff1611155b6141ec5760405162461bcd60e51b815260206004820152601660248201527f6e6f726d616c697a653a20646563696d616c733e33360000000000000000000060448201526064016113ba565b8160ff168360ff1603614200575082612410565b8160ff168360ff16101561428f575f6142198484615ddd565b61422490600a615ed9565b905080850291508481838161423b5761423b615c39565b04146142895760405162461bcd60e51b815260206004820152601360248201527f6e6f726d616c697a653a206f766572666c6f770000000000000000000000000060448201526064016113ba565b50612410565b5f61429a8385615ddd565b6142a590600a615ed9565b90506142b18186615c4d565b95945050505050565b6040516001600160a01b0384811660248301528381166044830152606482018390526143369186918216906323b872dd906084015b604051602081830303815290604052915060e01b6020820180517bffffffffffffffffffffffffffffffffffffffffffffffffffffffff8381831617835250505050614dee565b50505050565b6116645f7f9b779b17422d0df92223018b32b4d1fa46e071723d6817e2486d003becc55f00614125565b61436e614e73565b7fcd5ed15c6e187e77e9aee88184c21f4f2182ab5827cb3b7e07fbedcd63f03300805460ff191681557f5db9ee0a495bf2e6ff9c91a7834c1ba4fdd244a5e8aa4e537bd38aeae4b073aa335b6040516001600160a01b03909116815260200160405180910390a150565b306001600160a01b037f000000000000000000000000000000000000000000000000000000000000000016148061447157507f00000000000000000000000000000000000000000000000000000000000000006001600160a01b03166144657f360894a13ba1a3210667c828492db98dca3e2076cc3735a920a3ca505d382bbc546001600160a01b031690565b6001600160a01b031614155b15611664576040517fe07c8dba00000000000000000000000000000000000000000000000000000000815260040160405180910390fd5b613241614031565b816001600160a01b03166352d1902d6040518163ffffffff1660e01b8152600401602060405180830381865afa92505050801561450a575060408051601f3d908101601f1916820190925261450791810190615bd9565b60015b61454b576040517f4c9c8ce30000000000000000000000000000000000000000000000000000000081526001600160a01b03831660048201526024016113ba565b7f360894a13ba1a3210667c828492db98dca3e2076cc3735a920a3ca505d382bbc81146145a7576040517faa1d49a4000000000000000000000000000000000000000000000000000000008152600481018290526024016113ba565b6145b18383614ece565b505050565b306001600160a01b037f00000000000000000000000000000000000000000000000000000000000000001614611664576040517fe07c8dba00000000000000000000000000000000000000000000000000000000815260040160405180910390fd5b5f8280820361462757506148db565b5f88815260016020526040812090805b838110156147a2576040890151156147a2575f88888381811061465c5761465c615b5f565b9050602002013590505f84828154811061467857614678615b5f565b905f5260205f20906003020190505f816001015490505f826002015490508c6020015182101580156146a957505f81115b15614792575f6146bd828f60400151614f23565b90505f670de0b6b3a76400006146d38386615c22565b6146dd9190615c4d565b905081856002015f8282546146f29190615bae565b92505081905550818f60400181815161470b9190615bae565b9052506147188189615b9b565b97508160055f875f015f9054906101000a90046001600160a01b03166001600160a01b03166001600160a01b031681526020019081526020015f205f8e5f01516001600160a01b03166001600160a01b031681526020019081526020015f205f8282546147859190615b9b565b92505081905550839a5050505b5050600190920191506146379050565b5080156148d7575f6147b3826149bd565b90506147bf8183615bae565b89516001600160a01b039081165f9081526005602090815260408083208b830151909416835292905290812080549091906147fb908490615b9b565b9091555061480c9050816002615c22565b7390f79bf6eb2c4f870365e785982e1f101e93b9065f90815260056020908152888101516001600160a01b031682527f0746990d76fdc5474f74762eb31af098f8997074df7309c2c5af96715de9f2509052604081208054909190614872908490615b9b565b909155505060068a015474010000000000000000000000000000000000000000900460ff16156148ae576148ae86602001518a5f015184614f38565b61012c8a60030154426148c19190615bae565b11156148d55760028a018590554260038b01555b505b5050505b9695505050505050565b7f9016d09d72d40fdae2fd8ceac6b6234c7706214fd39c1cd1e609a0528c199300805473ffffffffffffffffffffffffffffffffffffffff1981166001600160a01b03848116918217845560405192169182907f8be0079c531659141344cd1fd0a4f28419497f9722a3daafe3b4186f6b6457e0905f90a3505050565b61496a61412b565b7fcd5ed15c6e187e77e9aee88184c21f4f2182ab5827cb3b7e07fbedcd63f03300805460ff191660011781557f62e78cea01bee320cd4e420270b5ea74000d11b0c9f74754ebdbfc544b05a258336143ba565b5f6113476103e883615c4d565b6040516001600160a01b038381166024830152604482018390526145b191859182169063a9059cbb906064016142ef565b6060816001600160a01b03166395d89b416040518163ffffffff1660e01b81526004015f60405180830381865afa925050508015614a5a57506040513d5f823e601f3d908101601f19168201604052614a579190810190615ee7565b60015b611347576040517fcb14bda10000000000000000000000000000000000000000000000000000000081526001600160a01b03831660048201526024016113ba565b919050565b5f816001600160a01b031663313ce5676040518163ffffffff1660e01b8152600401602060405180830381865afa925050508015614a5a575060408051601f3d908101601f19168201909252614a5791810190615dbd565b5f807ff0c57e16840df040f15088dc2f81fe391c3923bec73e23a9662efc9c229c6a00611347565b614b28615001565b614b318161503f565b614b39615050565b614b41615050565b614b49615050565b613241615058565b5f8083808203614b615750614d9a565b5f89815260026020526040812090805b83811015614cf25760408a015115614cf2575f838a8a84818110614b9757614b97615b5f565b9050602002013581548110614bae57614bae615b5f565b905f5260205f20906003020190505f816001015490505f826002015490508c602001518211158015614bdf57505f81115b15614ce7575f614bf38e6040015183614f23565b90505f670de0b6b3a7640000614c098386615c22565b614c139190615c4d565b905081856002015f828254614c289190615bae565b92505081905550818f604001818151614c419190615bae565b905250614c4e8288615b9b565b9650614c5a818c615b9b565b9a50614c65816149bd565b614c6f9082615bae565b60055f875f015f9054906101000a90046001600160a01b03166001600160a01b03166001600160a01b031681526020019081526020015f205f8e602001516001600160a01b03166001600160a01b031681526020019081526020015f205f828254614cda9190615b9b565b9250508190555083995050505b505050600101614b71565b508415614d965788516001600160a01b039081165f9081526005602090815260408083208a5190941683529290529081208054839290614d33908490615b9b565b909155505060068a015474010000000000000000000000000000000000000000900460ff1615614d6f57614d6f86602001518a5f015187614f38565b61012c8a6003015442614d829190615bae565b1115614d965760028a018490554260038b01555b5050505b965096945050505050565b5f81815b8451811015614ddf57614dd582868381518110614dc857614dc8615b5f565b602002602001015161506b565b9150600101614da9565b509392505050565b80825d5050565b5f5f60205f8451602086015f885af180614e0d576040513d5f823e3d81fd5b50505f513d91508115614e24578060011415614e31565b6001600160a01b0384163b155b15614336576040517f5274afe70000000000000000000000000000000000000000000000000000000081526001600160a01b03851660048201526024016113ba565b7fcd5ed15c6e187e77e9aee88184c21f4f2182ab5827cb3b7e07fbedcd63f033005460ff16611664576040517f8dfc202b00000000000000000000000000000000000000000000000000000000815260040160405180910390fd5b614ed782615097565b6040516001600160a01b038316907fbc7cd75a20ee27fd9adebab32041f755214dbc6bffa90cc0225b39da2e5c2d3b905f90a2805115614f1b576145b18282615133565b61165061519c565b5f818310614f315781612410565b5090919050565b6001600160a01b0383165f9081526003602052604081206004810154909190610100900460ff1615614f6b575081614faf565b600182015415614faf5760018201545f9081526020819052604090206002810154670de0b6b3a764000090614fa1908690615c22565b614fab9190615c4d565b9150505b8015614ffa576001600160a01b0384165f9081526006602052604081208054839290614fdc908490615b9b565b9250508190555080600a5f828254614ff49190615b9b565b90915550505b5050505050565b6150096151d4565b611664576040517fd7e6bcf800000000000000000000000000000000000000000000000000000000815260040160405180910390fd5b615047615001565b613241816151f2565b611664615001565b615060615001565b5f6009819055600a55565b5f818310615085575f828152602084905260409020612410565b5f838152602083905260409020612410565b806001600160a01b03163b5f036150e5576040517f4c9c8ce30000000000000000000000000000000000000000000000000000000081526001600160a01b03821660048201526024016113ba565b7f360894a13ba1a3210667c828492db98dca3e2076cc3735a920a3ca505d382bbc805473ffffffffffffffffffffffffffffffffffffffff19166001600160a01b0392909216919091179055565b60605f5f846001600160a01b03168460405161514f9190615f5c565b5f60405180830381855af49150503d805f8114615187576040519150601f19603f3d011682016040523d82523d5f602084013e61518c565b606091505b50915091506142b18583836151fa565b3415611664576040517fb398979f00000000000000000000000000000000000000000000000000000000815260040160405180910390fd5b5f6151dd614af8565b5468010000000000000000900460ff16919050565b613e29615001565b60608261520f5761520a8261526f565b612410565b815115801561522657506001600160a01b0384163b155b15615268576040517f9996b3150000000000000000000000000000000000000000000000000000000081526001600160a01b03851660048201526024016113ba565b5080612410565b80511561527f5780518082602001fd5b6040517fd6bda27500000000000000000000000000000000000000000000000000000000815260040160405180910390fd5b5f602082840312156152c1575f5ffd5b5035919050565b5f5f83601f8401126152d8575f5ffd5b50813567ffffffffffffffff8111156152ef575f5ffd5b6020830191508360208260051b8501011115615309575f5ffd5b9250929050565b5f5f5f5f60408587031215615323575f5ffd5b843567ffffffffffffffff811115615339575f5ffd5b615345878288016152c8565b909550935050602085013567ffffffffffffffff811115615364575f5ffd5b615370878288016152c8565b95989497509550505050565b803560028110614a9b575f5ffd5b5f5f5f5f6080858703121561539d575f5ffd5b6153a68561537c565b966020860135965060408601359560600135945092505050565b602080825282518282018190525f918401906040840190835b8181101561541c5783516001600160a01b0381511684526020810151602085015260408101516040850152506060830192506020840193506001810190506153d9565b509095945050505050565b80356001600160a01b0381168114614a9b575f5ffd5b5f5f6040838503121561544e575f5ffd5b61545783615427565b946020939093013593505050565b5f5f60408385031215615476575f5ffd5b50508035926020909101359150565b602080825282518282018190525f918401906040840190835b8181101561541c578351805184526001600160a01b03602082015116602085015260408101516040850152606081015160608501525060808301925060208401935060018101905061549e565b5f602082840312156154fb575f5ffd5b61241082615427565b5f5f60208385031215615515575f5ffd5b823567ffffffffffffffff81111561552b575f5ffd5b615537858286016152c8565b90969095509350505050565b5f81518084528060208401602086015e5f602082860101526020601f19601f83011685010191505092915050565b5f602082016020835280845180835260408501915060408160051b8601019250602086015f5b82811015615643577fffffffffffffffffffffffffffffffffffffffffffffffffffffffffffffffc087860301845281516001600160a01b038151168652602081015160e060208801526155ee60e0880182615543565b905060408201516040880152606082015160608801526080820151608088015260ff60a08301511660a088015260c0820151151560c08801528096505050602082019150602084019350600181019050615597565b50929695505050505050565b634e487b7160e01b5f52604160045260245ffd5b604051601f8201601f1916810167ffffffffffffffff8111828210171561568c5761568c61564f565b604052919050565b5f67ffffffffffffffff8211156156ad576156ad61564f565b50601f01601f191660200190565b5f5f604083850312156156cc575f5ffd5b6156d583615427565b9150602083013567ffffffffffffffff8111156156f0575f5ffd5b8301601f81018513615700575f5ffd5b803561571361570e82615694565b615663565b818152866020838501011115615727575f5ffd5b816020840160208301375f602083830101528093505050509250929050565b5f5f5f5f5f5f5f60c0888a03121561575c575f5ffd5b87359650602088013595506040880135945060608801359350608088013567ffffffffffffffff81111561578e575f5ffd5b61579a8a828b016152c8565b90945092506157ad905060a08901615427565b905092959891949750929550565b5f5f5f606084860312156157cd575f5ffd5b6157d684615427565b92506157e460208501615427565b929592945050506040919091013590565b5f5f5f60608486031215615807575f5ffd5b6158108461537c565b95602085013595506040909401359392505050565b602080825282518282018190525f918401906040840190835b8181101561541c57835183526020938401939092019160010161583e565b80358015158114614a9b575f5ffd5b5f5f6040838503121561587c575f5ffd5b8235915061588c6020840161585c565b90509250929050565b5f5f604083850312156158a6575f5ffd5b6158af83615427565b915061588c60208401615427565b604081525f6158cf6040830185615543565b905060ff831660208301529392505050565b602081525f6124106020830184615543565b5f81516101008452615909610100850182615543565b90506020830151602085015260408301516040850152606083015160608501526001600160a01b0360808401511660808501526001600160a01b0360a08401511660a085015260c083015161596960c08601826001600160a01b03169052565b5060e0830151614ddf60e086018215159052565b5f602082016020835280845180835260408501915060408160051b8601019250602086015f5b82811015615643577fffffffffffffffffffffffffffffffffffffffffffffffffffffffffffffffc08786030184526159dd8583516158f3565b945060209384019391909101906001016159a3565b61010081525f615a0661010083018b615543565b602083019990995250604081019690965260608601949094526001600160a01b03928316608086015290821660a08501521660c0830152151560e090910152919050565b602080825282518282018190525f918401906040840190835b8181101561541c5783516001600160a01b0316835260209384019390920191600101615a63565b60c081525f615a9c60c0830189615543565b6020830197909752506040810194909452606084019290925260ff166080830152151560a090910152919050565b5f5f60408385031215615adb575f5ffd5b615ae483615427565b915061588c6020840161585c565b602081525f61241060208301846158f3565b6001600160a01b038416815260406020820181905281018290525f8360608301825b85811015615b54576001600160a01b03615b3f84615427565b16825260209283019290910190600101615b26565b509695505050505050565b634e487b7160e01b5f52603260045260245ffd5b634e487b7160e01b5f52602160045260245ffd5b634e487b7160e01b5f52601160045260245ffd5b8082018082111561134757611347615b87565b8181038181111561134757611347615b87565b5f5f198203615bd257615bd2615b87565b5060010190565b5f60208284031215615be9575f5ffd5b5051919050565b600181811c90821680615c0457607f821691505b602082108103612f8357634e487b7160e01b5f52602260045260245ffd5b808202811582820484141761134757611347615b87565b634e487b7160e01b5f52601260045260245ffd5b5f82615c6757634e487b7160e01b5f52601260045260245ffd5b500490565b5f81518060208401855e5f93019283525090919050565b5f615c8e8285615c6c565b7f5f0000000000000000000000000000000000000000000000000000000000000081526142b16001820185615c6c565b601f8211156145b157805f5260205f20601f840160051c81016020851015615ce35750805b601f840160051c820191505b81811015614ffa575f8155600101615cef565b815167ffffffffffffffff811115615d1c57615d1c61564f565b615d3081615d2a8454615bf0565b84615cbe565b6020601f821160018114615d62575f8315615d4b5750848201515b5f19600385901b1c1916600184901b178455614ffa565b5f84815260208120601f198516915b82811015615d915787850151825560209485019460019092019101615d71565b5084821015615dae57868401515f19600387901b60f8161c191681555b50505050600190811b01905550565b5f60208284031215615dcd575f5ffd5b815160ff81168114612410575f5ffd5b60ff828116828216039081111561134757611347615b87565b6001815b6001841115615e3157808504811115615e1557615e15615b87565b6001841615615e2357908102905b60019390931c928002615dfa565b935093915050565b5f82615e4757506001611347565b81615e5357505f611347565b8160018114615e695760028114615e7357615e8f565b6001915050611347565b60ff841115615e8457615e84615b87565b50506001821b611347565b5060208310610133831016604e8410600b8410161715615eb2575081810a611347565b615ebe5f198484615df6565b805f1904821115615ed157615ed1615b87565b029392505050565b5f61241060ff841683615e39565b5f60208284031215615ef7575f5ffd5b815167ffffffffffffffff811115615f0d575f5ffd5b8201601f81018413615f1d575f5ffd5b8051615f2b61570e82615694565b818152856020838501011115615f3f575f5ffd5b8160208401602083015e5f91810160200191909152949350505050565b5f6124108284615c6c56fea264697066735822122076da155893af5084013b67c1d1e414cdd3719e236f9b0e1bb4379f252cd0fdd664736f6c634300081b0033",
    "linkReferences": {},
    "deployedLinkReferences": {}
}